:020000041000EA
:1000000000B5324B212058609868022188439860DF
:10001000D860186158612E4B002199600221596106
:100020000121F02299502B49196001219960352056
:1000300000F044F80222904214D00621196600F024
:1000400034F8196E01211966002018661A6600F04E
:100050002CF8196E196E196E052000F02FF8012189
:100060000842F9D1002199601B49196000215960AB
:100070001A491B48016001219960EB211966A021F2
:10008000196600F012F800219960164914480160C1
:100090000121996001BC002800D000471248134993
:1000A000086003C880F30888084703B5996A0420EC
:1000B0000142FBD001200142F8D103BD02B5186610
:1000C0001866FFF7F2FF186E186E02BD00000240BE
:1000D000000000180000070000035F00212200005C
:1000E000F4000018222000A00001001008ED00E03C
:1000F00000000000000000000000000074B24E7A12
:1001000000200420F7010010C3010010C5010010F9
:10011000C1010010C1010010C1010010C101001097
:10012000C1010010C1010010C1010010C701001081
:10013000C1010010C1010010C9010010CB01001065
:10014000CD010010CD010010CD010010CD01001037
:10015000CD010010CD010010CD010010CD01001027
:10016000CD010010CD010010CD010010CD01001017
:10017000CD010010CD010010CD010010CD01001007
:10018000CD010010CD010010CD010010CD010010F7
:10019000CD010010CD010010CD010010CD010010E7
:1001A000CD010010CD010010CD010010CD010010D7
:1001B000CD010010CD010010CD010010CD010010C7
:1001C00000BE00BE00BE00BE00BE00BEEFF3058054
:1001D000103800BEF2EB8871482504106825041021
:1001E0003402001090A31AE700201F49086006C8D7
:1001F00081F3088810471D48006800282FD10DA4FE
:100200000ECC002902D000F012F8F9E71849194A7B
:10021000002000E001C19142FCD1174988471749ED
:1002200088471749884700BEFDE701C901C29A42C5
:10023000FBD3704768250410C00000202011002067
:10024000C83504100000042000000420C835041044
:10025000001004200010042000000000704709482E
:1002600003F086FB0047000008ED00E0000000D02E
:1002700020110020BC290020291F0010DD020010E1
:100280001D2000105756000006005250ABB36053BB
:10029000E8A7001006005250861C0302F8A70010C1
:1002A000060052505422A29DFCA700100500525097
:1002B000DE65F468C8350410F8B5C046044B10B5C7
:1002C000002B03D00349044800E000BF10BDC04626
:1002D000000000003828002010A7001010B504F01E
:1002E00041F906F0A5FA00280ED10121002006F000
:1002F0008FFA642000F0D0FF0021002006F088FA79
:10030000642000F0C9FFF0E7024804F037F801204C
:10031000404210BD10A70010094A10B59446402471
:10032000830063441A68C000624080341440802215
:10033000520113431C60034B9C466044416010BD56
:1003400004C0014000400140074B80009C466044CF
:100350000368C90092000A435A400C231A408023C4
:100360005B0103431A60704704C00140084B8000E2
:100370009C466044002905D0802302229B01034350
:100380001A607047C02302229B0103431A60F8E7FA
:1003900004C00140D0231B061B6830B5050058423D
:1003A00043412F205B4283430D48EC0884460720DD
:1003B00028408000814020000A4D3C30634480008A
:1003C000A40041511B19002A04D08022920113433A
:1003D000196030BDC022920113431960F9E7C0468D
:1003E0003041014000400140D023F0B5C6461B0615
:1003F00098461B680C4F9B001600FA5804000D002D
:1004000000B5104209D1290014430D203200FC50E0
:1004100000F068F980BCB846F0BD01F01BFE434611
:100420001B689B00FA58EEE76828002010B504000E
:100430000D2000F051FAD0231B061B6802499B00D7
:100440005A58A2435A5010BD682800200123D022D8
:100450008340120693629361094A402194468300C7
:1004600063441A68C0004A40803111408022520122
:1004700013431960034B9C46052360444360704757
:1004800004C0014000400140024B18688007C00FC3
:100490007047C04600C00640EFF3108072B6034AB2
:1004A0001368002BFCD0BFF35F8F70472C0100D086
:1004B000BFF35F8F0022024B1A6080F310887047F1
:1004C0002C0100D070B5EFF3108C72B60D4D2B6877
:1004D000002BFCD0BFF35F8F0724CB08C618C05C8D
:1004E00001230C40A3401C000440034207D11843E1
:1004F0003070BFF35F8F2C608CF3108870BD1000DC
:1005000001F090FD2C0100D0F8B54746CE46884654
:1005100080B5EFF3108C72B61C4D2C68002CFCD00B
:10052000BFF35F8F9A4222D807210126894602E055
:100530000132934218D34D4637001540AF40D408DE
:100540000119045D2742F3D110003C430C70BFF346
:100550005F8F00220D4B1A608CF3108800280EDB91
:10056000C0BCB946B046F8BD01204042EFE7BFF33A
:100570005F8F00232B608CF310880120404243469C
:10058000002BEDD0089801F04DFDC0462C0100D0A5
:1005900030B5EFF3108C72B60A4C2368002BFCD0F8
:1005A000BFF35F8F072301220B409A40CD08435DC4
:1005B00093434355BFF35F8F002323608CF3108870
:1005C00030BDC0462C0100D00021044B044ABFF3CB
:1005D0005F8F02C39342FAD17047C046000100D03A
:1005E000800100D0044A1078431CDBB2172B00D9DD
:1005F000102313707047C046F00F002010B5064B53
:10060000064C82B00100009318221F232000FFF740
:100610007BFF02B010BDC04628A70010BC1A002006
:1006200001238340002904D0034A1360034A136066
:100630007047034A1360FBE780E200E000E100E05E
:1006400080E100E001238340014A13607047C04607
:1006500000E200E0084B10309B688000C358002B7C
:1006600007D0064A00209B1A2F229A424041C0B26E
:1006700070470020FCE7C04600ED00E0F40F0020CA
:10068000024B10309B688000C058704700ED00E0BE
:1006900070B50D00EFF3108672B60F4A1368002B89
:1006A000FCD0BFF35F8F0D4B10309B6884001B594B
:1006B0000B4A934203D09D4201D001F0CBFC074B83
:1006C0009B681D51BFF35F8FBFF35F8F0022024B0A
:1006D0001A6086F3108870BD240100D000ED00E0A0
:1006E000CD010010F0B557464E46DE464546E0B512
:1006F00085B0060000911700EFF3108B72B66A4ABE
:100700001368002BFCD0BFF35F8F0025674B5D574C
:100710009A46002D00DAA9E06B00654C01935B1945
:100720009B009846A146C1444B4652469B791036E1
:100730001370604BB6009B6899590B1B2F2B33D954
:100740005D4B994200D0ACE0019B42469C465B4B1E
:100750006544AD0063535A4B0232A218043B9B1A06
:100760001B05584A5B0D651913436B80564B0121DD
:10077000AB80FF23AB71009BEF71AB604B460B432B
:1007800019004C4B9B689951BFF35F8FBFF35F8F8C
:100790000022454B1A608BF3108805B0F0BCBB46B5
:1007A000B246A946A046F0BD01200A008243D37993
:1007B0008C46BB4231D84546130044491B1B5B4164
:1007C0005943090D3D4B63533D4B02356519043BBD
:1007D0005B1B1B053B4D5B0D2B43AA464D466B80B7
:1007E0000425AC465546E044131F44441B1B1B051F
:1007F0005B0D1D434B46997100999D809960494658
:10080000DF71334B01431360BBE75800C018800011
:100810002018C179B9422FD902000623D356002BE4
:10082000F3DA02932B4B61460393131D9A4604237C
:100830005B429C46E14450464B461B1A1B055B0D30
:100840009C46204B957198466346404603439380EF
:10085000019B5A199200039BA418A380029B1C4A77
:10086000A371009B2260E771A3608AE701F0F2FBAD
:10087000002553465D574FE7908802934005131DAE
:100880009A46031561469C464046D444634604306C
:100890002018181AE0230005400D1B02184303908E
:1008A000C5E701F0D7FB4FE7240100D0B3290020B2
:1008B000F40F002000ED00E0CD01001000A1FFFFCB
:1008C0002410002000E0FFFF01BDFFFFAAAA0000E6
:1008D0000148804701BD0000F8B5DE4657464E4648
:1008E00045460C00E0B5EFF3108872B65B4A13681A
:1008F000002BFCD0BFF35F8F594B5A499A68030015
:1009000010339F00D5599C468D4238D0A54248D01F
:10091000554EAA1B2F2A32D8012213008340994634
:100920005248006803409A464B4651480360BFF363
:100930005F8FEFF305839B46002B34D09C4501D09D
:1009400001F088FB01232A009A439068844208D171
:1009500072E04B005B189B00F3189868A04232D0FD
:100960001A00062151560029F3DA844250D053462A
:10097000002B24D04A463F4B1A603C4B1A60384B40
:100980009B68DD51BFF35F8FBFF35F8F0022334B56
:100990001A6088F31088F0BCBB46B246A946A04650
:1009A000F8BD0D00EBE72B00934398681A008442D2
:1009B000D7D106201856002809DA0D0030E04A4643
:1009C0002B4B1A60DBE706201856002821DB42007B
:1009D0001118890074188B46A1689960E179D97162
:1009E000062161569971002924DBA488F11A640557
:1009F00024155C44091909051F4C490D21439980B0
:100A000013181E4A9B001178F31899711070AEE705
:100A100013005946002914D1FF3191711849918072
:100A200016490A789A71174A9B1B5B415A43120D6B
:100A30000A709CE71249E2E70620105613000028CE
:100A4000C5DA114A1149D21A083A5002400D014341
:100A500099800F4952080A43DA8088E7240100D0C0
:100A600000ED00E0CD010010F40F002000E100E0F7
:100A700080E100E080E200E000E0FFFFB329002019
:100A800001BDFFFFAAAA00002E10002000F0FFFF0A
:100A900000F8FFFF032310B50400074A18409446EE
:100AA000C0009C43FC3383406444226881409A43E5
:100AB00013000B43236010BD00E400E070B5EFF3BA
:100AC000058101240443EFF3108C72B6214A1368A8
:100AD000002BFCD0BFF35F8F1F4B05001F4AED1AA0
:100AE0006D416A43120D1E4D8900AE6852B27658B0
:100AF000A6421CD00621595691421CD012215956AB
:100B0000914222D01E215956914220D02A21595675
:100B10000324914210D0134B19781A708171BFF3DE
:100B20005F8F00220B4B1A608CF3108870BDAB688E
:100B30000D4C5C50EFE700246100091989005B1837
:100B4000FF21997109499980E5E70124F4E702241E
:100B5000F2E7C046240100D0F40F0020AAAA00004A
:100B600000ED00E0B3290020CD01001001BDFFFF22
:100B7000054B064A1360064A136053609360D360C6
:100B800013615361936170478080808000E400E0CE
:100B900004E400E01F2110B5091A0248FFF7F8FC31
:100BA00010BDC046B829002010B5084B084C82B0D3
:100BB00001000093002205232000FFF7A5FC002878
:100BC00001DB1F23181A02B010BDC04644A7001055
:100BD000B829002070B504000E001500FFF702FDD3
:100BE0000100200000F006F8A680E580BFF35F8FCB
:100BF00070BDC046024B9C4661448900016070474D
:100C00004000003410B50400FFF7ECFC01002000A8
:100C1000FFF7F0FFFF232371BFF35F8F10BDC046C6
:100C200010B50400FFF7DEFC01002000FFF7E2FF33
:100C3000FF23A380BFF35F8F10BDC04610B5040033
:100C40000120FFF7DBFC034BC3189B002360BFF3BD
:100C50005F8F10BD40000034034B9C466144890007
:100C60000160BFF35F8F70474000003483680B481A
:100C700010B58446614462441201090159189B1859
:100C80005C684A680120944201D802D00020C0B2BA
:100C900010BD1A680B689A42F9D8F7E7FFFFFF0FFB
:100CA0000A4B1968EFF3108072B60A68002AFCD06C
:100CB000BFF35F8F1B68BFF35F8F00221A6080F362
:100CC000108840BF002000217047C0467C290020CA
:100CD000F8B557464E464546DE46E0B598460CAB5D
:100CE0001C780DAB1B78070091469A460668002CCD
:100CF00057D1B47B002C3AD0650031682D19033DE3
:100D000049194B78B373002B00D1F37300238B7018
:100D10004B700B702D4BE218BB6812019B184A46B2
:100D20001A6042465A600A9A9A600B9ADA60002367
:100D30008B704B700B70737B9B46002B24D0220072
:100D400073685946B06898475B465B0032685B44FD
:100D5000033B5519D21800280FD05B46AB701378AF
:100D6000002B24D15B46147073735C450DD0F0BC2E
:100D7000BB46B246A946A046F8BD94702B78002B1E
:100D800000D053705B462B7074734A464346387DDF
:100D900000F032FC051E11D10E9B002BE7D01D7018
:100DA000E5E7650031682D19033D4919B2E76B701D
:100DB0005B46147073735C45D9D1E6E75346002B4C
:100DC000EAD12100386800F04DFEE5E7FFFFFF0F94
:100DD000664B8200F0B5D4580023DE4657464E4697
:100DE00045469B46E0B58DB0099000F0A5FB6268D2
:100DF00006000F00EFF3108872B61368002BFCD0CA
:100E0000BFF35F8F23689C465B7B9946002B0DD117
:100E10006368BFF35F8F4A461A6088F310880DB08D
:100E2000F0BCBB46B246A946A046F0BD504BA568F3
:100E30004B441B01ED182868696802000B00921BE7
:100E4000BB41002B0EDD02000B00099800F0D4FB23
:100E50006368BFF35F8F5A461A6088F310880028D2
:100E6000C3D1DCE7002B01D1002AECD10021604680
:100E700000F064FDAB680200286869689A46EB6878
:100E80000A900B9108934B465D1EE368585D6368BA
:100E9000000202432261BFF35F8F5A461A6088F353
:100EA00010885346002BBAD04B4608991843D047B8
:100EB000626806900791EFF3108872B61368002BF2
:100EC000FCD0BFF35F8F079B002B27DB069A079BA5
:100ED0001100194302D02369002B3BD12368D97B31
:100EE000002906D01A684800411852184946033AAA
:100EF00051709A7B002A01D14A469A734A46DA73A6
:100F0000E268535D013353555B4623616368BFF369
:100F10005F8F5A461A6088F3108866E72369002BB2
:100F2000DCD00A9A0B9B06980799121A8B41002B6A
:100F300002DA01220F4B5242002104910131039148
:100F40004946029108992000019151460091FFF70E
:100F5000BFFED9E700F0F0FA069A079B12184B4142
:100F6000002BE9DA0122034B5242E5E75828002022
:100F7000FFFFFF0FFFFFFF7F10B5144C6368002BCE
:100F800004D00A211248FFF735FE10BD2300114A94
:100F90001021206800F0DEFB032000F0C1FA0320DE
:100FA00000F092FB03200C4900F0E0FAFFF71AFB77
:100FB0000A4B9C4603232375D0231B061B68604401
:100FC0006375074B80006060DC60DAE73C1000204E
:100FD0007C2900206D0C0010D10D00104000003461
:100FE00058280020004870473C100020F0B54E46BD
:100FF0005746DE464546E0B587B0019312AB1B78F5
:101000000600059300239A46994600927268EFF312
:10101000108B72B61368002BFCD0BFF35F8F35685E
:10102000AC7B002C00D170E067002B683F19033FB8
:10103000DB195A78AA73002A00D1EA73464AA1182C
:10104000B268090152180098019910605160109916
:1010500091601199D1604A469A705A701A706B7BF0
:101060009846002B61D022006B684146A8689847DB
:1010700043465B002A684344033BD719D218002833
:101080004CD04346BB701378002B00D07B70434696
:1010900014706B73444549D0F3681B19013B1878F1
:1010A0007368BFF35F8F4A461A608BF3108853460C
:1010B000002B08D10002204307B0F0BCBB46B2466B
:1010C000A946A046F0BD059B002B43D0109B0020F5
:1010D0001199984703000B433CD0029003910029DB
:1010E00031DA009B019C0299039A5B1A9441802299
:1010F000009301941206944204D30123174C5B42DF
:1011000000930194059B9A4680E77368BFF35F8F55
:101110001C608BF3108801204042CDE794703B782F
:10112000002B00D0537043463B706C73307D009AA7
:10113000019B00F061FA82460028ADD021003068A2
:1011400000F090FCA8E700F0F7F9029B039C1B1845
:101150004C41CCE70020AFE7FFFFFF0FFFFFFF7F11
:10116000F8B5040000292FD04268EFF3108572B65D
:101170001368002BFCD0BFF35F8FFF222068CFB233
:10118000437B0A40BB4213D003685600B6189B1934
:10119000033B9B78002B0BD12269914216D0002093
:1011A0006368BFF35F8F00221A6085F31088F8BD73
:1011B000E6680B0AB218013A1278DBB29A42EED115
:1011C000390000F04FFCEBE70020F0E72361E6E791
:1011D000407D7047F0B506000F0006246442E51715
:1011E000C646A4197D4100B584B08D4214D811D0F3
:1011F00000F0A2F922002B00121A8B41002B15DC03
:10120000002B3ED03000390000F0A0F904B080BCC3
:10121000B846F0BD8442EBD90024002500F08CF9DB
:1012200022002B00121A8B41002BE9DD00230293D0
:101230000193154B2200009314482B00FFF7D6FEB4
:101240000130DFD0002329009846114A1148536A23
:10125000994204D8956AA542D4D29942D2D1056860
:10126000EFF3108C72B62B68002BFCD0BFF35F8FAE
:101270000368BFF35F8F45461D608CF3108820BF65
:10128000E5E7002ABED0D1E7A10C00103C100020F9
:10129000004005407C290020F0B5C64600B584B06A
:1012A000040000F049F9FA2206000F002000002394
:1012B0000021920002F02CFF8019794104000D1EDC
:1012C00002DA01242A4D644206267642F7173619BF
:1012D0006F41AF4214D811D000F02EF932003B001C
:1012E000121A8B41002B15DC002B3ED02000290068
:1012F00000F02CF904B080BCB846F0BDA642EBD992
:101300000026002700F018F932003B00121A8B412A
:10131000002BE9DD002302930193164B320000936A
:1013200015483B00FFF762FE0130DFD00023390093
:101330009846124A1248536A994204D8976ABE42A4
:10134000D4D99942D2D10768EFF3108C72B63B68BA
:10135000002BFCD0BFF35F8F0368BFF35F8F47465E
:101360001F608CF3108820BFE5E7002ABED0D1E7CC
:10137000FFFFFF7FA10C00103C1000200040054043
:101380007C290020F0B5EFF30583C64600B50500C3
:101390000C0084B0002B0FD02F4A0020536AA342C8
:1013A00006D3926A1B1BAA4240415A1E934118431E
:1013B00004B080BCB846F0BD284E02930193284B80
:1013C0000200009330000B00FFF710FE00280CDC39
:1013D000214A0020536AA342EAD3926A1B1B591E7A
:1013E0008B41AA4240411843E2E720BF7268EFF305
:1013F000108772B61368002BFCD0BFF35F8FC3B2A7
:101400009C46FF223368024098465B7B63450DD0C3
:101410004346196853009B18C91803398B78002B71
:1014200004D13269904209D1336107E0F168030ABF
:101430008A18013A1278DBB29A4207D07368BFF378
:101440005F8F00221A6087F31088A5E76146404647
:1014500000F008FBF2E7C046004005403C100020C9
:10146000A10C0010F0B5EFF30582D6464F46464674
:101470001000C0B51038EFF3108872B6214C236805
:10148000002BFCD0BFF35F8F0123190081401E4D5C
:101490001F006963AA461D4D29601D4D2E78AC467C
:1014A0003500C5402F402B4215D053465F6A194B7B
:1014B0008500EB589F4218D36246174B8E43EB587A
:1014C0001670BFF35F8F0022226088F31088002B14
:1014D00006D0984704E0BFF35F8F276088F3108839
:1014E000E0BCBA46B146A846F0BD0C4B92009C4603
:1014F000624413681360BFF35F8F0023236088F397
:101500001088EDE7280100D0004005403C70054000
:10151000B7290020882900207C190020D03F0540F1
:1015200010B5034B01001800024AFEF7CBFF10BDB7
:10153000B129002060A70010034B596A0A00986A7D
:10154000596A8A42FAD1704700400540064A536AF8
:101550009942FCD807D1044B02E05A6A914202D169
:101560009A6A8242F9D370470040054070B5040082
:101570000D00EFF3108672B61A4A1368002BFCD0E8
:10158000BFF35F8F002D1BD02000FFF779F81649BD
:1015900081420AD02000FFF77BF801212000FFF7ED
:1015A0003FF80123A340114A1360114BA400E550FA
:1015B000BFF35F8F00220B4B1A6086F3108870BD5B
:1015C0000121A1400A4BA200D5500A4B20001A78F5
:1015D0008A4305491A70FFF77FF900212000FFF7C1
:1015E0001FF8E5E7280100D06514001038600540B9
:1015F0007C190020B7290020F0B54F46D646464654
:10160000C0B507002B4C616A0D00A66A616AA94249
:10161000FAD18B4208D805D00120E0BCBA46B146C9
:10162000A846F0BDB242F7D9EFF3108A72B622484D
:1016300001680029FCD0BFF35F8F0125BD401F4921
:101640001C4C8846097889462943C9B28C464146D4
:1016500060460870391D890065630A511849B80051
:101660004350216A0020294219D0616A0800A66A05
:10167000616A8142FAD18B4219D801D1B24216D89F
:10168000CC450BD00B4B1F221D625D6301233A40FA
:1016900093400C4A136043464A461A700120BFF338
:1016A0005F8F0022044B1A608AF31088B5E7002090
:1016B000F5E7C04600400540280100D0B7290020CA
:1016C0008829002080E200E0EFF3108C72B60A490E
:1016D0000B68002BFCD0BFF35F8F01238340074AC8
:1016E0000748136202789A430270BFF35F8F0023AA
:1016F0000B608CF310887047280100D00040054033
:10170000B729002070B506000D00140000291CD078
:10171000002A12D073688068984763006A003168B5
:101720001B195219033B033ACB188918002806D01D
:101730009D700A78002A0AD10C70280070BD8C7048
:101740001A78002A00D04A701D702000F6E75A70FF
:101750000C70F2E710B583600023CCB24373013301
:10176000426004738373C4730068421C012C05D962
:101770000133DBB2137003329C42F9D1FF230B40DB
:101780005A00D318C01800230338437010BDC04658
:10179000F8B5CE46474605000C0080B5002907D0B5
:1017A0004E0003687618033E9A195778002F04D12B
:1017B0002000C0BCB946B046F8BD7900C91903394C
:1017C00088464344597889460021597051706B68A6
:1017D0003A0021008068984743462A68D318921936
:1017E000002811D09C701178002900D05970177012
:1017F000270049462800FFF7CBFF390002002800E8
:10180000FFF780FF0400D3E797701978002900D014
:1018100051701C70EDE7C046F8B557464E46454638
:10182000DE464C00E0B5641817000268033C050072
:10183000105D13190E009C46002854D043009846B2
:101840001B18033BD31859788A46002920D1002F52
:1018500013D0EC7B002C51D063001B19D318033B31
:101860005E70AB7B002B3CD0EE73002807D04300AA
:101870009846434619180339531800229A700023DA
:1018800062465370F0BCBB46B246A946A046F8BDBE
:10189000490051440339521851788846002151704B
:1018A00089465970524601002800FFF72BFF434636
:1018B0008246002B07D05B0029684344033BCB18CA
:1018C0005A78002A1FD1424651462800FFF71AFFD6
:1018D000A4462A689444002FC7D0EC7B002CC0D0CB
:1018E000BAE7AE73C0E7002FC9D0EC7B002CB3D1B0
:1018F000AB7B002B20D1A973E973C0E7AB7B002B36
:10190000EFD0EE73B5E75000801803380918487817
:10191000834648464870587041462800FFF7F2FE5B
:10192000594680462800FFF733FF41460200280051
:10193000FFF7E8FE8046C6E7E973A0E7F8B557462B
:101940004E464546DE46E0B5467B02687500AD1959
:10195000033D0F00515D531904009C46002956D0E9
:101960004B0098465B18033BD318587882460028F2
:1019700022D1002F13D0E57B002D53D06B005B19D3
:10198000D318033B5E70A37B002B3ED0E673002987
:1019900007D04B00984643465818033813180022C6
:1019A0009A7000236246300053706173F0BCBB46EE
:1019B000B246A946A046F8BD40005044033812186C
:1019C0005078804600205070814658705246200062
:1019D000FFF798FE43468246002B07D05B00216844
:1019E0004344033BCB185A78002A20D14246514643
:1019F0002000FFF787FEAC46226801009444002FC8
:101A0000C5D0E57B002DBED0B8E7A673BEE7002F9A
:101A1000C7D0C57B002DB1D1837B002B20D186732D
:101A2000C673BEE7A37B002BEFD0E673B3E750008D
:101A3000801803380918487883464846487058701B
:101A400041462000FFF75EFE594680462000FFF722
:101A50009FFE414602002000FFF754FE8046C5E786
:101A6000C6739EE770B5040000292CD0437B8B42DF
:101A70002ED0056848004018033828188278002ABC
:101A800021D053009B18033BEA5CEE188A4202D136
:101A90001BE0002A08D053009B18033BEB185A7830
:101AA0008A42F6D142785A70002301228370437033
:101AB0002000FFF7B1FE617B02002000FFF722FE4D
:101AC0006073012000E0002070BD43783370EBE7C5
:101AD00001221900FFF7A0FEF2E7C04610B50C2066
:101AE00082B000F0B7F9FEF7CFFC002810D08B4B86
:101AF0008B488B498B4A186059609860D96018618F
:101B000059619861D961186259625A6202B010BD78
:101B1000854CA06700F0F4F90122844B1A60636CD5
:101B2000012BFCD10322824B1A607F4A936B012B5D
:101B3000FCD1013301217F4A7F480093043300F038
:101B400037F905237D4A009301217D4800F030F9E3
:101B50007C4B5A68FF2A02D8802252005A608022A9
:101B6000734B6E4C12011A602169002907D060691D
:101B700001F058FF013043001B18033BFDD2E02366
:101B8000704A714811680B40036002231168594084
:101B900001330B400421036093681942FCD080217B
:101BA0006A4B090119608021694B4900516023612A
:101BB000684B5A68FF2A00D85960032201215B4B09
:101BC0001A60644A93681942FCD0E023106803400D
:101BD00061480360126803234A40022113405D4AB2
:101BE000036093681942FCD080215C4B09011960A5
:101BF00080215B4B4900516063615A4B5A68FF2A50
:101C000000D859608022584B12011A60E1690029FE
:101C100007D0606901F006FF013043001B18033B49
:101C2000FDD2E0234F4A11680B4050490B608021E0
:101C30004F4B090119608021394B49005160E36124
:101C40004C4B5A68FF2A00D8596080224A4B120137
:101C50001A60216A002907D0606901F0E3FE0130B3
:101C600043001B18033BFDD2E023424A11680B409E
:101C700042490B608021424B0901196080235B00BF
:101C800053608022264BD20223623E4B5968914218
:101C900000D25A6080223C4B12011A60616A00290E
:101CA00007D0606901F0BEFE013043001B18033B02
:101CB000FDD2E023334A11680B4034490B60802188
:101CC000334B090119608023DB025360154B6362BB
:101CD000304B5A68FF2A02D8802252005A60802274
:101CE0002D4B12011A60A169002907D0606901F02B
:101CF00099FE013043001B18033BFDD2E023254A27
:101D000011680B4025490B608021254B09011960A2
:101D100080235B005360124BA361F7E62011002083
:101D2000006CDC021BB70000008000403CB00040AB
:101D300030B00040002F685900800240008C864778
:101D400000C00240308000403090004030A0004091
:101D5000001BB7003C8000403C9000403CA000408D
:101D6000405973075480004054B0004054900040E4
:101D700054A000406080004060B00040609000408F
:101D800060A000406C8000406CB000406C9000404F
:101D90006CA000404880004048B00040489000409F
:101DA00048A00040014B8000C0587047201100201F
:101DB000F8B5040022481E0017000D0001F032FEA5
:101DC0000100380001F02EFE069B36041B031E4363
:101DD0002368002B22DB1B4B1B49E3185A1E93413F
:101DE0008022920194465B421B0B184A1B036344FA
:101DF0001360174A13601F008A689743FBD1C02203
:101E0000231D92011A4321232560A06013602368DB
:101E1000002BFCDA0823E6601360F8BD3F2322683C
:101E20001340AB42D7D1A3681B051B0D8342D2D10F
:101E3000EE22E368D2021340B342CCD1EDE7C046B4
:101E4000001BB7000040FDBF00C0004000E00040A4
:101E500000F000408023024A9B000343D362704796
:101E60000080054010B580241C4BE4051C60002850
:101E70001AD001231A4C18431A4BDC611A4C444007
:101E80001C62596298628021144BC9051960174879
:101E900017490860E021C9041960002A07D180228F
:101EA000144B12061A6010BD0E4BD861EBE75301BC
:101EB0009B1A9B009A18802312015B049A4209D254
:101EC00013000D490B60074B5A608022094BD20565
:101ED0001A60E8E7094B1A00F3E7C04600B0054076
:101EE000D3C007B0008005402D3FF84FFCFF010034
:101EF0000820014000A0054030280020FFFFFF001F
:101F0000AA23064A1B0113602F230549D360054B02
:101F100019605368002BFCDA7047C046004002404D
:101F200000B0FA00006002402C4B2D4A70B51A60D8
:101F30002C4A2D4B2D491A6014008B689C43FBD111
:101F40002B4D2C4EB54208D2013E761BB60808CD6B
:101F5000984723000134B342F9D1FFF7BFFD264A69
:101F6000214B1A60214A9368DB43DB01DD09002B1A
:101F7000F9D14022214B224C224E9A675A671A67A8
:101F8000DA66B44208D223682000002B20D008343F
:101F9000FEF746FEB442F6D31B4C1C4EC022B1687D
:101FA000200002F011F9B460FEF70EFBFEF7E0FD31
:101FB000FEF7E2FF164C174EB44208D2013E361B24
:101FC000B60808CC98472B0001359E42F9D170BD68
:101FD0000834FEF717FEB442D5D3DDE700E0004039
:101FE000BFCDFBFEFE7F3C0000F0004000C0004083
:101FF0000411002014110020FFFFFF0100F0014038
:10200000FC100020041100200000002000ED00E082
:10201000141100202011002000BEFDE710B5FFF7CD
:10202000FBFFC0460FB400B5084883B002F0A6F924
:10203000049B002B07D005A91800019101F072FC48
:10204000034802F09BF90120FFF7E6FF84A7001088
:1020500064A9001010B50148FFF7E4FF94A7001031
:102060007047C046F8B55746DE464E464546E0B591
:1020700099460A9B07009A460D9B884693460B9CFF
:102080009B073BD10C9B9C423DD21E1B0B94150021
:102090000C005E442A004B46013521002020B84741
:1020A000B542F7D1A0460B9C002C20D045463619EE
:1020B0005346321B013C185D29004B46B847002CA3
:1020C000F6D12B00350098460D9B9B070FD55B463C
:1020D000EC1A0C9BA3420AD9464698462A004B4666
:1020E000310020200134B84701354445F6D328009B
:1020F000F0BCBB46B246A946A046F8BD1600150086
:10210000002CD3D1E0E716001500002CCED1EEE76D
:10211000F0B54546DE4657464E46E0B585B09C468E
:1021200010AB1B78149F934698460F9C129E139DEC
:10213000BB074CD4002D42D1B44248D201233B40CE
:1021400099460E9B013B9A46302304E052460134E7
:102150001355A64201D9202CF8D14B46002B00D1B3
:1021600083E00E9B013B99463023A54205D82EE023
:102170004A4601341355AC4229D0202CF8D1FB0635
:102180000CD57B0554D4A64263D0A54261D0119BE7
:10219000102B50D0022B57D0202C32D1202301936A
:1021A0000E9B5A460093039763460295FFF75AFF2A
:1021B00005B0F0BCBB46B246A946A046F0BD01231F
:1021C0003B40994601233B422AD1B442B9D3FB0696
:1021D0001CD57B05DBD4002CD5D1119B102B5BD0FB
:1021E000119B022B6BD0302301240E9A13704346AF
:1021F000002B10D17B073ED52B260E9A631C16555B
:10220000CDE72300013430260E9AD654202CC5D0B9
:102210004346002BEED02D260E9A631C1655BEE7C2
:102220004346002B2FD0013DB44200D289E798E706
:10223000119B102BB2D1BB0637D5202CAED0582322
:102240000E9A13550134A7E7202CA7D023000134A0
:1022500007E0631E012CC0D0119A102A31D0022A47
:10226000D1D162260E9AD65496E7FB06CED57B05D1
:1022700000D488E78BE723003E0790D520260E9AEE
:10228000013316558BE70C233B405A1E9341ED1A40
:10229000B44200D255E764E7BB060ED478230E9A09
:1022A0000224137030235370A1E7202C00D175E76E
:1022B00078230E9A135501346EE75823EFE7603305
:1022C000EDE70E9AA61E91464E44BA0602D5582254
:1022D000327098E77822327095E7C04610B5002832
:1022E00000D110BD02F000F8FBE7C0460B0010B5AE
:1022F000002802D049681B68984710BDF0B55746C2
:10230000DE464E464546E0B595B083460F00924600
:1023100098461E9A1F9B10001900209E01F03BFE5C
:10232000002800D0EAE11E981F990122C54B5242B5
:1023300001F016FE002800D014E11E981F9901221A
:10234000C14B524201F022FE002800D0E9E01E9865
:102350001F990022BD4B01F019FE002800D0C8E0F3
:102360001E981F990022BA4B01F0FAFD002800D0F8
:10237000BFE01E981F990022002301F0F1FD002804
:1023800000D0E4E000230B93229B5B0500D40626DB
:102390000024302307E0172106AA013452181355F0
:1023A000013E202C01D0092EF5D81E981F9901F06E
:1023B0001DFEA84BF2009B181A685B680500089286
:1023C000099301F0FBFD02000B001E981F9901F01C
:1023D00064FD089A099B01F084FD0690079101F0C5
:1023E00029FE814601F0E6FD02000B0006980799E0
:1023F00001F053FD0022984B0690079101F0C6FDB5
:10240000002800D10DE101239C46E144484601F03B
:10241000D1FD02000B000898099901F0A7FD0028E2
:1024200002D0002399460135002E00D1D9E006954F
:102430004D46B94614E006AA944617230A21634480
:10244000280001341F1901F0EDFA303139702800ED
:102450000A21013E01F0E6FA092D00D817E1050036
:10246000202CE8D14F46069D20240CAE06AA172347
:102470009446634499465B46B34606930FE04B4649
:1024800028000A210134E61801F0A4FA30312800AE
:1024900031700A2101F09EFA051E00D1E4E0202CE3
:1024A000EDD1069B5E469B460323229A1340012BE7
:1024B00018D1219B002B15D00B9B002B00D1FDE0E8
:1024C000219B013B2193202B0CD93023219A07E03B
:1024D000172006A9013409180B55944200D3CCE00B
:1024E000202CF5D1229B01940393219B009602930B
:1024F00022E0229B52460493219B390003935846C5
:102500001E9B1F9C029600930194434600F04AF9DB
:102510000400200015B0F0BCBB46B246A946A04658
:10252000F0BD229B5B070FD403224C4B22990192F2
:10253000039121990093029143465246390058462F
:10254000FFF790FD0400E4E70422454BEEE71E9AF6
:102550001F9B0020002101F0A0FC01231E901F9171
:102560000B9311E7229B54469B0711D1219B042B0F
:102570000ED9219B55469C465E46043C64442A0085
:102580004346013539002020B047A542F7D1B34674
:10259000344D26002B1F99465B46A3461C00320093
:1025A000E87843463900013DA04701364D45F6D154
:1025B00023005C469B46229B04349B07A9D55346C7
:1025C000219AE31A9A42A4D95E4615002200434696
:1025D00039002020B04753460134E31A9D42F5D814
:1025E00097E7280001F0EAFC02000B001E981F99F3
:1025F00001F053FC0022184B0690079101F0B0FC4B
:102600000CAE002800D031E7069807990022124B43
:1026100001F0BCFC002800D028E7012301359D43D0
:1026200024E70022069807990B4B01F099FC00283B
:1026300000D0F9E64B46002B5CD101239C46E144D7
:10264000F2E6C046FFFFEFFFFFFFEF7F65CDCD4114
:1026500065CDCDC1E8AD00100000E03FA8A7001097
:10266000A0A70010B0A70010069B5E469B46032360
:10267000229A1340012B00D181E0202C00D131E7B8
:102680000B9B002B27D02D23335501342AE74F46CF
:10269000069D202C00D1E7E63022331907E01720F1
:1026A00006A9013409180A55202C00D1DCE6A34202
:1026B000F5D12E220CAE0134F254D7E60C23229A27
:1026C000134257D0219B013B2193A34200D9FCE642
:1026D000202C00D106E7229B5B0703D52B23335523
:1026E0000134FFE6229B1B0700D4FBE62023335571
:1026F0000134F7E6DB0700D496E69EE7229B5546B9
:102700009B0711D1219B032B0ED9219B54469C463C
:102710005E46033D654422004346013439002020D3
:10272000B047AC42F7D1B346B9465F461C4EEC1CED
:102730002A00B078434649460135B847013EAC42CD
:10274000F6D1229BBB464F469B0700D4E1E6534699
:10275000219AE31A9A4200D8DBE65E461500220071
:10276000434639002020B04753460134E31AAB42B8
:10277000F5D3CEE6219BA34200D9A6E6B2E6219B83
:10278000002B00D179E70B9B002B97D0219B013BBD
:1027900021939C4200D298E6202C00D073E7A1E65A
:1027A000ACA70010F0B5DE4657464E464546E0B5AC
:1027B00099B081468B4692469846229A239B1000F8
:1027C000190001F0E8FB002800D0CAE02298239904
:1027D0000122824B524201F0D9FB002800D0C0E018
:1027E0002298239901227E4B524201F0B9FB002826
:1027F00000D0B6E0229823990022002301F0B0FB1C
:10280000002800D0C9E1229B239C089309940898D2
:1028100009998023269ADB001A400D928022269C7B
:102820001201144022000B94269C07000E001C424B
:1028300000D0ADE00B00034300D0D5E0002A00D06B
:102840000AE2220006332493022313400C9302234E
:10285000134200D002E2259B042B00D20FE2043B7E
:102860000B93002304250A93002222982399002326
:1028700001F076FB002800D003E25A4B269A134061
:1028800004930B9B0393249B0293089B099C009346
:1028900001945946434652464846FFF72FFD020031
:1028A0002020269B1F27034059424B415B42184082
:1028B000531C0893594643464530C8470A9AD317D4
:1028C000D4185C40D30F0A936B1E0B9308AB9C4645
:1028D0000025674401E0202D0FD020000A2101F0DF
:1028E000A1F801357E193031317020000A2101F044
:1028F00099F826000400092EEDD8052306930B9BBA
:1029000059460593002304930A3303930A9B4846D0
:10291000029310AB0093089A43460195FFF7F8FB2A
:102920000C9B002B2DD05346C41A259BA34228D9BB
:102930004D465F4681461E00534639001A19202035
:1029400043460134A847A642F6D85346484625993F
:10295000C21A01320023914200D386E101301818D7
:102960000FE0269B0493259B0393249B0293229BB9
:10297000239C009301944346524659464846FFF72C
:10298000BDFC19B0F0BCBB46B246A946A046F0BD9E
:1029900001432BD10B9B2200002B00D154E70023D5
:1029A0000A93249B0A9A0024934200DD85E1229831
:1029B00023990022002301F0D3FA002800D035E14A
:1029C000269B084A02941A408023DB001343049399
:1029D000259B0393089B099CCBE7C046FFFFEF7F35
:1029E000FFFFEFFFFFF7FFFF06232493B44B7000B8
:1029F0009C46400D604401F0E1FAB24AB24B01F04E
:102A000070FAB24AB24B01F04DFA3603B14B360BB5
:102A1000334304000D00380019000022AE4B01F0D2
:102A20003CFAAE4AAE4B01F05CFA02000B0020000B
:102A3000290001F037FA01F0D9FA0A9001F0BEFA44
:102A4000A84AA94B04000D0001F04BFA0022A74B45
:102A500001F028FA01F0CAFAA54A0600A54B2000A9
:102A6000290001F03EFA040030000D000C9601F040
:102A7000A5FAA14AA14B01F034FA02000B00200094
:102A8000290001F00AFA02000B0006000F0001F015
:102A900028FA320004000D003B003000390001F03C
:102AA00001FA00220E900F91954B2000290001F0B1
:102AB000FEF90022934B01F0F5F902000B00200013
:102AC000290001F0F4F900228F4B01F0EBF902002C
:102AD0000B002000290001F0EAF90D00802104001C
:102AE00032003B000020C90501F0D7F902000B00BD
:102AF0002000290001F0D6F902000B000E980F9972
:102B000001F0D5F90022734B01F0CCF97F4B0C9CFE
:102B10009C4664440022230501F0E3F906000F00FF
:102B200002000B000898099901F01AFA00280AD04F
:102B30000A9B3000013B39000A930022714B01F0DF
:102B4000B6F906000F000A9A330063323900C62A2C
:102B500012D802222698042510400B9A0C90002AC5
:102B600025D1259B042B05D9002800D0A1E0259B69
:102B7000043B0B93042541E00222269810400B9A57
:102B80000C90002A12D1259B052B76D9002872D1F2
:102B9000259B0525053B0B9334E0802212069446C5
:102BA000229B0893239B6344099330E605250B433E
:102BB00000D1F6E608980999554A564B01F0DEF91E
:102BC000002808D0089809990022534B01F0C8F951
:102BD000002800D0E5E6249B002B1CD00D9B002B89
:102BE00019D0249B013B2493259BAB4204D90C9B19
:102BF000002B5AD002230C9300230B930A9B002B2B
:102C000000D131E60898099932003B0001F04FF9F4
:102C10000890099128E6259BAB42EDD90C9B002B2F
:102C200043D000230B9302330C93E7E78020269BCD
:102C30003A4A00061A40802384460294089C099D63
:102C40002900DB0013430493259B61442200039376
:102C50000B00009201938EE60524A8E600230B9357
:102C60000A93023304250C93FEE553468C46013B40
:102C700063441B1A72E602230C930525C2E7042362
:102C8000EDE58020089E099F000639008446269ABB
:102C9000224B6144134004930B9B32000393249B0B
:102CA00002930B0000920193F3E5259B5B1B0B93B2
:102CB000A4E7022304250C93A0E79C1A013C76E6C6
:102CC00001FCFFFFFB799F501344D33FB3C8608BD7
:102CD000288AC63F0000F03F0000F83F61436F6361
:102CE000A787D23F71A379094F930A400000E03FC4
:102CF0001655B5BBB16B0240EF39FAFE422EE63FE6
:102D000000002C400000244000001840FF03000099
:102D10002D431CEBE2361A3F80842E41FFF7FFFF64
:102D2000F0B5DE4657464E464546E0B5A5B01E0016
:102D30002E9B92460C93CD4ACD4B80468B461A6013
:102D4000002900D1EAE1002330789946002800D11B
:102D5000ECE1C84B4C460B93C74B454657460E9388
:102D60000AE0631C984622003B005946A8474446A7
:102D70003078002800D187E001362528F1D10823DA
:102D80009A46043B9946023B9846013B00229C46EA
:102D90000D943078711C0300203BDBB2102B03D85C
:102DA0000B9C9B00E3589F460300303B89460D9CDB
:102DB000092B3AD9002398462A2800D1C1E00023E4
:102DC0009A462E284BD00300683BDBB2122B1ED84C
:102DD0000E999B00CB589F4663460E001A43D8E7D6
:102DE00043460E001A43D4E74B460E001A43D0E781
:102DF00010230E001A43CCE753460E001A43C8E7CF
:102E000080235B001A43FF3B9C467078E1444E46AA
:102E100067284FD82428A4D90300253BDBB2422BD6
:102E20009FD896499B00CB589F46002394461E008E
:102E300000E00131B3009B195B001E180878303E9A
:102E40000300303B092BF4D90123624689469C4696
:102E50000023B0469A460E00E1442E28B3D130211B
:102E6000802049428C46C000024370784B4684441F
:102E70006146092900D86CE12A2800D17AE10123B2
:102E80009C464E46E1449EE7A146A846BA46CA453E
:102E900003D801235B425344994653464A46594658
:102EA0000020C047200025B0F0BCBB46B246A94672
:102EB000A046F0BD0300693BDBB20D930F2B00D998
:102EC0004FE7012199408C466D49894661464B4642
:102ED00019400F91634649460B4200D028E10D9BF3
:102EE0000A2B3AD0072B00D03BE70C9B190008C9EE
:102EF0008846002B00D14BE121200243914614A9C2
:102F00008C461F220F2162448C4651460D950C9130
:102F1000A24615000F9902E020290CD01300644648
:102F20001C4020003730092C00D807380131685484
:102F30001A090F2BF0D80C9B54460D9D9A460F9101
:102F400033E10C9B02CB8846002947DB0C9301231D
:102F50009C4670784E46E14431E70C9B02CB1493BB
:102F60005346002B00D138E19C4608780B000C90AA
:102F70008C44002801D100F098FC894661469446B3
:102F800003E05A780133002A01D08B42F9D1494637
:102F900062465B1A0C900F93530500D520E1022383
:102FA000180010400D90134200D1CBE30D930B1B82
:102FB000B1469A465E460C9822003B003100A84775
:102FC00053460134185D0028F6D1B3464E460D9B9A
:102FD000002B00D0C7E1149B0C93C9E60C9301238E
:102FE0009C46283849420243884670784E46E14460
:102FF000E5E670786C2800D17FE180235B001A43FE
:10300000FF3B9C46E14402E780239B001A430123D7
:103010009C467078E144FAE67078682800D173E144
:1030200080231A437F3B9C46E144F0E6672800D1A9
:1030300003E1472800D15AE1452800D15AE1049222
:10304000072142460C9B0392073352468B431900DB
:1030500002920CC92800009201930C9122003B00BF
:103060005946FFF79FFB040082E6C046212D001061
:103070002C28002048AC00108CAC0010D8AC0010FC
:1030800041900000462800D1DBE00492072142462F
:103090000C9B0392073352468B43190002920CC9D2
:1030A0002800009201930C9122003B005946FFF743
:1030B00025F904005CE6631C984622003B00594653
:1030C0002520A847444653E60C9B04330D93631C0C
:1030D0009946920700D422E10C9B220018785946A9
:1030E0003B00A84743464444012B00D885E2330007
:1030F000B8462E005F4625004C46994622004346BE
:10310000013439002020B047AC42F7D12C00BB4637
:10311000350047464E460D9B0C9329E6DB4B307835
:10312000984600239946002800D012E60024AEE617
:103130006F2800D188E000D80BE31023782800D155
:10314000CFE09A430A239C4600230F930A330D9342
:1031500080E05646B1008919490001330E181878ED
:10316000303E010030390929F4D9B2461E0001333E
:10317000994628E60C9B023602CB8A46C943504644
:10318000C917084082460C933078731C99461AE69A
:1031900010231000984311331843814680201300F8
:1031A000C0000340024200D1A9E64B460693082323
:1031B00005935346049310230393002302930F9B1C
:1031C000220001931CAB009359463B002800FEF7F8
:1031D0009FFF434604000C93CAE501235B42C3E60C
:1031E0000F9B534501D953460F93022318001040FB
:1031F0000D90134200D1B7E10D93D1460B1B9A46B7
:103200003300A1442E0022004D460C98B9465F467B
:103210009B4608E04B463900541CB0475346185DA6
:10322000002877D022009542F4D15B46BB464F463A
:10323000A94635004C461E00C9E680231B011A43EF
:10324000FDE620231A4320E708239C4600230F9322
:1032500008330D9380231100DB0019401A4200D17E
:1032600016E10D239A431000802302009B001A40B0
:103270001492184200D0C2E1802302005B001A4081
:1032800091460C9A04320F92184200D0B7E24306DE
:1032900000D59FE1030600D419E30C9B1B8809931A
:1032A000002B00D0FCE110339843002900D1F7E156
:1032B0000023994643460593534604930D9B06907D
:1032C00003930023D2E0582808D0622867D1022354
:1032D0009C4600230F9302330D93BBE720231A4330
:1032E000103B9C4600230F9310330D93B2E78023CD
:1032F0001B011A4320231A43A1E6C0239B001A4353
:10330000F31C9946B07882E5C0231A43F31C994612
:10331000B0787CE535005E46BB464F4657E64346EF
:10332000012B00D863E1631E43449A463300B9463B
:103330002E005F4655469B46A24622004B4601346E
:1033400039002020B047AC42F7D135005E46BB467D
:103350004F46A14654460C9B4A46187859463B00B6
:103360004444A847D7E6A1460F9B984500D832E6CB
:103370004444E41A3300B8462E005F4625004C460C
:10338000994622004346013439002020B047AC4220
:10339000F7D12C00BB46350047464E461BE680233E
:1033A0001000DB0018401A4200D10FE11121180073
:1033B0008A430D920D9A802311009B0019408C4680
:1033C0001A4269D1802311005B00194089460C998B
:1033D00004310F911A4200D0CAE113005B0600D5F8
:1033E000F0E013001B0600D459E20C9B00229B5E08
:1033F000D9175A184A4092B2D90F0C91002B00D11C
:10340000F9E1100014AA944642461F231492524632
:103410006344A84616944D460400B946B2461F00C0
:10342000159201E0202D0FD020000A2100F0FAFAB9
:1034300001357E193031317020000A2100F0F2FA96
:1034400026000400092EEDD8149B4F46A946454698
:103450009846159B56469A46169C0D9B06934346E6
:103460000593534604930A2303930C9B02934B4604
:1034700001931CAB2200009359463B002800FEF745
:1034800047FE0F9B04000C9372E4C04661200010BD
:103490000C239A431000E7E607220C9B0733934363
:1034A000013294469C4462460C920CCBD90F0F918A
:1034B0001100194300D191E0D91713911291514095
:1034C000109113995940119110981199129A139BC8
:1034D000801A99411090119114AA002394464246F3
:1034E0009946149252461F336344A846B246169436
:1034F0004E46109C119DB94615921F0001E0202EEA
:1035000010D0200029000A22002300F0C9FA013659
:1035100030322B00BA550D0022000400002BEED1F2
:10352000092AECD8149B1094119545469846159B92
:103530004F46B14656469A46169C0D9B0693434607
:103540000593534604930A2303930F9B02934B4620
:1035500001931CAB2200009359463B002800FEF764
:10356000D7FD0400FFF704FC0F9B984500D8C1E18C
:103570008023DB000D9343460F9A1B199B1A994633
:1035800033002E004D46B9465F469B460C91220003
:103590004B46013439002020B047AC42F7D14346B6
:1035A0000C9901330F930B7835000C935E46BB46A4
:1035B0004F46002B00D10EE50D9B002B00D1F6E409
:1035C000002319E60C9B1B781A0015E710239A4379
:1035D0000D92EFE60C9B1B78099361E60023994658
:1035E0000028AAD1002200231092119374E70C9BAB
:1035F0002200187859463B00A8474C468BE50C9AA8
:10360000FA3BFF3B07329A430133994691444B46BC
:103610000C931368526815921A4306D110329043E6
:1036200000220992002900D081E06122810600D5A4
:103630004122D2B20A9214AA91460A9A00210A3A69
:10364000149242461792524618925A460991B3462E
:103650001F311E000F9B4944BA4619941A95002445
:10366000674698468946159D16901B920AE03032AF
:10367000D2B24B4601341A55A8454AD0202C4AD024
:1036800006000D003A0000233000290000F008FA7F
:10369000D2B2092AEBD9149B9C466244D2B2E8E725
:1036A0006123820600D54123DBB20A3B0C934346DB
:1036B00014A91F228C46159353466244A046B24675
:1036C0004C461797A9461700099D0D9E1490169316
:1036D00008E03033DBB201343B55B5420ED3202C29
:1036E0000CD005003100280000F09CF9CBB209296C
:1036F000EFD90C9A94466344DBB2ECE7159B4D4638
:10370000A14644469846169B564614989A46179FDB
:10371000D0E5B742B2D9179B57469846189B5E46EC
:103720009A461B9B09949B461698199C1A9D4346E2
:103730000593534604930D9B069003930023029335
:10374000099B05E70F9B984500D914E701330F93B8
:103750002DE41023110099430D91692800D0BAE09F
:1037600080231000DB0018401A4200D122E61DE63B
:103770000C9B1B68DA0F1100002B00D18CE0DA17CC
:103780009818504014AA914642461F23149252465C
:103790004B44A046A946169704006546B2461F0052
:1037A0000C91159201E0202D0FD020000A2100F08D
:1037B00039F901357E193031317020000A2100F0CD
:1037C00031F926000400092EEDD8149B4446984692
:1037D0000C9BAC461900159B56464D469A46169FC3
:1037E0000D9B0291069343460593534604930A2387
:1037F000039363463CE6002800D02EE602E60C9BCD
:103800001B689946002B03D110339843002938D107
:103810006123820600D54123DBB20A3B0C93434669
:103820001693534614A91F228C4617932B0062440B
:10383000A0464D46B246189799461700149C0D9E17
:10384000159008E03033DBB201343B55B5420ED35E
:10385000202C0CD005003100280000F0E3F8CBB29A
:103860000929EFD90C9A94466344DBB2ECE7169B26
:10387000149444469846179B56464D469A461598CA
:10388000189F43460593534604930D9B069003935C
:1038900000230293149BEBE50028A1D172E70C9B57
:1038A0001B68D9175A184A40A6E580231000DB0090
:1038B00018409C460F901A420FD00220030013407C
:1038C0000F93104219D00023A1460F934CE50C9B97
:1038D0001B680993E4E40A0034E402231800104052
:1038E0000D90134200D03EE54346002B00D042E647
:1038F000FFF771FB01330F937FE463460D93F3E70A
:1039000010B50C0084B00394012402A90290009326
:10391000034813006242FFF703FA04B010BDC0462B
:10392000ED22001010B5094A0300146884B0002C81
:1039300008D0012200910648524203A9A047012065
:1039400004B010BD00F01AFD0020F9E72C2800207B
:10395000DD22001001480421014B1847701000209F
:1039600091390010014B9B6818470000701000202F
:10397000002310B50100988A1B8B984710BDC046E4
:10398000162310B50100188802331B88984710BD14
:10399000F8B54746CE4680B50F1E18D01423994679
:1039A000043304000025012698464B4618884346F8
:1039B00021681B88984701C4431E98410135064081
:1039C000AF42F2D13000C0BCB946B046F8BD0126C6
:1039D000F8E7C046124A936F9B0815D29066D166ED
:1039E000002905D0FFE7FFE7FFE7516F106F704731
:1039F00004B580210906C2175140002800D0C843F1
:103A000006F02EFE002104BDF0B5146E556E576F02
:103A1000166FFFF7E3FF1466556657671667F0BD2C
:103A2000000000D0114A936F9B0813D210665166B4
:103A3000002905D0FFE7FFE7FFE7516F106F7047E0
:103A400004B5002801D00020C04306F009FE002183
:103A500004BDC046F0B5146E556E576F166FFFF774
:103A6000E5FF1466556657671667F0BD000000D085
:103A700094464A4A926F9208624601D228E0C046B4
:103A8000F0B5464E346E756E776F366F00F020F8E5
:103A90009446424A14665566576716676246F0BDFB
:103AA00094463E4A926F9208624601D254E0C04664
:103AB000F0B53A4E346E756E776F366F00F04CF895
:103AC0009446364A14665566576716676246F0BDD7
:103AD000002B24DB11D000293EDA00B5C943404257
:103AE00000D1013100F038F8C943404200D1013122
:103AF000DB43524200D1013300BD002AEBD1002844
:103B000001D1002905D00020C90FC90701D1C04348
:103B1000410800B506F08CFD0022002300BD00B571
:103B200000290ADBDB43524200D1013300F014F8D4
:103B3000C943404200D1013100BDC943404200D1D8
:103B40000131DB43524200D1013300F005F8DB4381
:103B5000524200D1013300BD002923D1002B18D1DE
:103B6000002A0CD0BC460D4F38667A66002100232F
:103B7000FFE7FFE7FFE77A6F386F67467047002877
:103B800001D00748010000B506F052FD00220023D5
:103B900000BD02000B00002000217047000000D093
:103BA000FFFFFFFF002B00D0BFE0130C28D1002A3D
:103BB000E7D080B4114F39667A66FFE7FFE730B48B
:103BC000040C7B6F396F1B0423433B667A66FFE767
:103BD000FFE7FFE7C04684B27B6F3D6F1B042343C2
:103BE0003B667A66FFE7FFE7C04600232C042D0CF6
:103BF0007A6F386F00196941B0BC7047000000D07F
:103C0000F0B594460025140E01D112020835140FA8
:103C100001D112010435940F01D192000235D40F65
:103C200001D152000135D40B0134254F7C66254C5F
:103C30003C660E0C93B2FFE7FFE7FFE73C6F66437D
:103C4000360C7703BE467343DF0B5B04C01AB941E1
:103C5000130C7343DB18C91ACE086643360CB644FE
:103C600093B273431F0F1B01C01AB941130C734366
:103C70001F0B1B05C01AB941860D8F023E436643D8
:103C8000360C092D24DB520A7243801A7703460A48
:103C90006643360C16235B1BDE40DF40BF196446CB
:103CA0006643821B7046043506330100D940A840A4
:103CB000C01900D30131A24206D20023F0BD00009A
:103CC000000000D0FFFFFFFF121B0130F3D3F1E72C
:103CD00009277F1BFE406446A2B27243801A00D2BD
:103CE0000139220C7243130C1204821A99410B0001
:103CF0007046043513370100F940A840801900D3FD
:103D00000131002B02D1A2420AD2F0BD013000D312
:103D10000131121BFAD2013BF8D1A24200D2F0BD10
:103D2000013000D30131121BF7E7F0B51C0C00D0B5
:103D300080E00CB400251C0A04D11B02160E33438C
:103D4000120208351C0B04D11B01160F334312015C
:103D500004359C0B04D19B00960F3343920002352F
:103D6000DC0B02D192185B4101351C0097186441AD
:103D70000134464F7C66464C3C660E0CFFE7FFE77D
:103D8000FFE7C0463C6F6643360C7703BE4697B2EA
:103D90007743C01B00D20139C01B00D201399FB24A
:103DA0007743C91BC91B170C77437E04FF0B801B8D
:103DB000B941CE086643360C0C2D33DBB644120BEA
:103DC0001F053A431B0B97B27743C01B00D2013942
:103DD0009FB27743C91B170C77433E043F0C801BEF
:103DE000B941860D8F023E43664329277F1BFE4063
:103DF0000C3D7746AF40BF1930BCA2B2ABB27243A4
:103E00007343801A9941220C7243130C1204801AD6
:103E1000994102000B000137001BA941F9D2781E1D
:103E20000021F0BD0C277F1BFE4077467F0BAF4083
:103E3000FF19E0E700245D1C07D0144F7D6639664A
:103E4000FFE7FFE7FFE7FFE73C6F95B29EB26543F0
:103E50006643401BB141150C1E0C65436643360496
:103E60002F0C3E432D04401BB141994204D2020065
:103E70000B0020000021F0BD01D19042F7D3801A41
:103E8000994101349942F2D3F6E70000000000D0D6
:103E9000FFFFFFFF48404140484018B4134B5B68A8
:103EA000019308BD18B4114B1B68019308BD9446DB
:103EB0000F4A926F920805D2624618B40B4BDB682A
:103EC000019308BD0A4AF0B5146E556E576F166F10
:103ED0006246FFF7F2FF064A146655665767166793
:103EE000F0BD18B4014B9B68019308BD98120020E7
:103EF000000000D0FFB550404240504059404B4078
:103F0000594000E0FFB5154F4C00640D03D0BC4292
:103F100004D10C0314D80020090D09055C00640DC0
:103F200003D0BC4204D11C030AD800221B0D1B0580
:103F300001264B4009D44B4003D58B4200D182422D
:103F4000FFBD9942FCD19042FFBD0B43DB180343F8
:103F50001343F5D0C9434918FFBD0000FF07000017
:103F600000B5FFF7CFFF804100BDC04600B5FFF7A9
:103F7000C9FF01D9002000BD012000BD00B5FFF739
:103F8000B9FF01D9002000BD012000BD00B5FFF739
:103F9000B1FF804100BD012040054A00121804D83D
:103FA0005A00121801D800207047012070470020E5
:103FB000704700000021002805D17047C117484014
:103FC000401AFAD0C90713B5064B1B6898470CBCBA
:103FD000441CA2401005120B0349091B0905194393
:103FE000114310BD782800201F04000010B54C00BC
:103FF000620D8023D218DB00D21A5B057E2A10DD09
:104000009E3A13DACC170903490819435242D140AA
:10401000640001341532202A05DAD0400843604399
:1040200010BD002010BD0846604310BDC80FC01869
:10403000013810BD18B4024B5B6A019308BD000043
:104040009812002010B50148FDF7ECFFB8A700104A
:10405000132370B51D78012D15D010DD1B48FFF717
:104060008FFC1B4C01008022200000F0ADF8022DD7
:1040700006D01848FFF77CFC174B186070BD144C35
:10408000164BA364F5E7164B114C23606360A360E5
:10409000E36023616361A361E36123626362A362FE
:1040A000E36223636363A363E36323646364A364DE
:1040B000E36423656365A365E36523666366A366BE
:1040C000E36623676367A367E367D9E753440000A8
:1040D000981200204C33000078280020E5400010A2
:1040E0004540001007B5604601880A0A0230DF2A01
:1040F000FAD1C9B2820804D3028840880004104370
:1041000000E00068014A5050039007BD981200205B
:1041100051434343C9188C46110C83B24B4310B42E
:10412000040C614392B280B2504362431C041B0CE6
:10413000001910BC59411304120CC01851416144BC
:104140007047000010B50148FDF76CFF40A9001052
:10415000132310B510481C78FFF712FC0100012C46
:104160000AD003DD80220D4800F02EF80C48FFF73E
:10417000FFFB0C4B186010BD084C5422200000F0CF
:1041800023F82200084980322368002B00D12160E7
:1041900004349442F8D1E9E7534600007C2800201B
:1041A0004C330000782800204541001001480421CC
:1041B000014B18478010002091390010014B1B68FB
:1041C0001847000080100020014B5B681847000072
:1041D00080100020F0B5C64600B5437D07000C00F6
:1041E0001600002B46D0002A17DD0B780A2B24D0AE
:1041F00000239846012E13D001252900635C013568
:104200000A2B26D0B542F8D1464509DCA419013C59
:1042100023780D3B5A4253413B7580BCB846F0BDF4
:104220004346E018A419F11A013C3B6898472378EB
:104230000D3B5A4253413B75EFE7037D002BD7D12D
:1042400002210F483B689847012EDFD00123984692
:10425000D2E7631E5B5C0D2BD4D0884504DA43465D
:10426000C91AE0183B689847022105483B68A846F0
:104270009847C7E70368110020009847CDE7C0467C
:104280005CAE0010F0B5C6460B6806000C0000B529
:10429000802B06D05A1C2260E418267180BCB846D8
:1042A000F0BD0F4B1D68002D16D00B1D98460D4F0D
:1042B00002E02D69002D0FD02B68002BF9D03B6850
:1042C000002B01D0AB42F4D1280041462268FFF711
:1042D00081FF2D69002DEFD101220023DBE7C046CD
:1042E0002024002028240020F0B5CE46474680B583
:1042F00083B06B460600DD1D2870FDF71DF9002315
:10430000194A12184B41002B02DA0122174B524274
:1043100017490800884606F0D3F9164B81461C68F9
:10432000002C14D0144F02E02469002C0FD0236815
:10433000002BF9D03B68002B01D09C42F4D1200027
:1043400001222900FFF746FF2469002CEFD14B46DC
:10435000002B05D1300003B0C0BCB946B046F0BD5B
:10436000404606F05DF9F5E740420F00FFFFFF7F92
:10437000FC1000202024002028240020F0B5DE4678
:104380004E4645465746E0B583B0060006F0A6F80F
:104390000500FDF7D1F80023284A12184B41002BE5
:1043A00002DA0122264B5242264908008B4606F0CB
:1043B00087F9254B81461C689A46002C38D00A2381
:1043C000224F984602E02469002C17D02368002B66
:1043D000F9D03B68002B01D09C42F4D120002A0088
:1043E0003100FFF7F7FE6B4642462000DA71D91D17
:1043F0000122FFF7EFFE2469002CE7D14B46002B8A
:1044000018D153461C68002C06D06368002B0BD0D3
:1044100098472469002CF8D1280003B0F0BCBB46B3
:10442000B246A946A046F0BD2469002CEDD1F3E7C1
:104430000028F1D0584606F0F3F8E2E740420F00BA
:10444000FFFFFF7FFC1000202024002028240020F4
:104450000A4A1368002B05D10CE01A001B691032C0
:10446000002B07D08342F8D1002902D118691060CF
:10447000196170470029FCD01060FAE72024002061
:10448000F0B5CE46474680B5A3B004000D00FDF759
:1044900053F80023274A12184B41002B02DA01225D
:1044A000254B5242254E300006F00AF90023220027
:1044B000019307002B00224801A9FFF721FA214BA5
:1044C000804699461C68019B002B1AD0002C2FD0E7
:1044D0001D4D02E02469002C0FD02368002BF9D079
:1044E0002B68002B01D0A342F4D12000019A02A92D
:1044F000FFF770FE2469002CEFD14B461C680023A7
:104500000193002C06D06368002B0BD098472469D8
:10451000002CF8D1002F07D1404623B0C0BCB946CB
:10452000B046F0BD2469ECE7300006F079F8F3E717
:104530000194EFE740420F00FFFFFF7FFC100020D7
:104540008542001020240020282400200FB400B54C
:1045500083B004A901C90191FFF792FF03B008BC21
:1045600004B0184710B500F0D3F910BD7047C0462D
:104570000022014B1A707047B42900204B790020AB
:10458000FF2B0BD18B79002B08D1CB79012B05D1D7
:10459000082A03D9024B8A7809301A707047C0463E
:1045A000B42900200120704770B5012913D11449A6
:1045B0005379107909781B0203430020994200D0F7
:1045C00070BD5378012B08D0022BF9D16422002151
:1045D0000020FDF747FC0120F2E79478D27805002F
:1045E00012021443D20502D5620A93401D00054809
:1045F000FFF7BEF97F210300214028009847C046FD
:10460000B429002055420000012303700048704780
:1046100060AE00104B780A781B0213438A7810B5FD
:1046200012041A43CB781B0613439622D2009342FE
:1046300000D010BD0348FFF79BF9002103000800DC
:104640009847C04655420000024B1860024B196063
:104650007047C046B41A0020B81A002010B5024BAB
:104660001878FBF7EFFF10BDB5290020114B70B58E
:104670001A68002A1AD0EFF3108172B61068002869
:10468000FCD0BFF35F8F00200B4A596010701B688D
:10469000BFF35F8F186081F3108800240025074B5B
:1046A0001878FBF7CFFF2900200070BDFA24002501
:1046B000A400F4E750280020B6290020B5290020E6
:1046C00070B5040000200E0001F0E6FA002834D096
:1046D000002001F0F9FA00282FD0FCF72DFF00236D
:1046E000174A12184B41002B16DB164D280005F017
:1046F000E7FF002821D0002001F0CEFA00280FD1DA
:1047000001200021404200F0C3FC03246442280041
:1047100005F086FF200070BD01220B4B5242E4E7FA
:10472000002001F0D1FA0028EAD021003200002058
:1047300001F0D6FA041EEAD1E7E703246442E9E770
:1047400040420F0080290020FFFFFF7FF8B5DE46C2
:10475000574680B505000C00FCF7EEFE0023364AF4
:1047600012184B41002B02DA0122344B52423449D9
:1047700008008A4605F0A4FF002803D1C0BCBB4650
:10478000B246F8BD002001F087FA00284AD0002682
:10479000002C43DD2B4B9B4614E0A919002001F0AF
:1047A00011FB070001200021404200F071FC0020B5
:1047B00001F0CCFAFCF7C0FE224BF61918605960E4
:1047C000B4422BDD002001F017FBA71B0200B8420A
:1047D00000DD3A00002AE0D101200021404200F033
:1047E00057FC002001F0B2FA002001F055FA002831
:1047F00014D0002001F000FB0028E1D1FCF79CFE62
:104800005B460F001A685B68002184460E48121848
:104810004B419F4202D8D3D19445D1D9504605F09F
:10482000FFFEABE700200021064B186059605046A0
:1048300005F0F6FEA2E7C04640420F00FFFFFF7FF3
:10484000802900209012002020A1070010B5234CE1
:1048500084B00021200005F013FF00281CD1204B5C
:104860001A68002A16D0EFF3108172B6106800287B
:10487000FCD0BFF35F8F01241A48596002781B688F
:10488000D2B20470BFF35F8F0020186081F31088EC
:10489000002A0AD004B010BD01200021404200F0DF
:1048A000F7FB200005F0BCFEF4E7FCF79BFB0400DF
:1048B000FCF742FEFA220023920012184B41002B13
:1048C00002DA0122084B524201210291002101919A
:1048D000064920000091FCF789FBDBE780290020D6
:1048E00050280020B6290020FFFFFF7F6D460010F2
:1048F000054B10B51868002804D0044B0022196835
:1049000001F03CF810BDC046B41A0020B81A0020CF
:10491000D02310B51B0684B01C68FCF763FBFCF7C2
:1049200057FCA04202D0002004B010BD264B1B78DB
:1049300001F044FC2548FCF765F90120FCF734F947
:10494000FF23234C234920701840FBF7A1FE207859
:104950000121FBF765FE0520FBF77CFE002825D131
:10496000FCF740FB0400FCF7E7FDFA22002392006D
:1049700012184B41002B02DA0122174B524201213F
:10498000029100210191154920000091FCF72EFBB6
:104990000822040000211248FFF710FC002CC2DBA3
:1049A00010480121FFF754FD0120BDE700220E4908
:1049B0000520FBF797FEFBF715FE094B01001800D9
:1049C000FCF74AF9ECE7C046642504108029002072
:1049D000B52900204D480010FFFFFF7F6D460010F5
:1049E00050280020901000205D46001000487047BD
:1049F000F0AE0010004870479CAE001010B50400E7
:104A000017480378002B20D0002C06D1154B1648F0
:104A10004380063BFF3B038010BD052C1DD8134B84
:104A2000A400E05812490123013804E001330A8050
:104A30000231142B0DD0C25C002AF7D1C022DBB2A8
:104A40005B00920008481343E5E7112100F022F8CB
:104A5000DAE7CA2304489B00DDE70020DCE7C04614
:104A60009829002009040000F823002084AE0010DB
:104A7000FA23002010B5024800F0E0F810BDC0464F
:104A80007028002010B508220149FFF79DFB10BDDA
:104A90007028002030B54B1E012900D1A7E0664ADE
:104AA00011780D092C0030349F2900D9A2E0047040
:104AB000012B00D1BEE00F21147821400C003034CE
:104AC000092900D998E04470022B00D1B2E0547853
:104AD0002509290030319F2C00D990E08170032BEB
:104AE00000D1A7E00F2121400C003034092900D962
:104AF00087E0C470042B00D19CE09478250929003C
:104B000030319F2C00D97FE00171052B00D191E05D
:104B10000F2121400C003034092900D976E044717E
:104B2000062B00D186E0D4782509290030319F2C4E
:104B300000D96EE08171072B00D17BE00F2121406D
:104B40000C003034092966D8C471082B00D171E0FB
:104B500014792509290030319F2C5FD80172092B67
:104B600068D00F2121400C003034092958D84472F4
:104B70000A2B5FD054792509290030319F2C52D857
:104B800081720B2B56D00F2121400C0030340929A3
:104B90004BD8C4720C2B4DD09479250929003031A3
:104BA0009F2C00D9073101730D2B43D00F212140D9
:104BB0000C003034092901D937310C0044730E2B15
:104BC00038D0D1790C09220030329F2900D9073220
:104BD00082730F2B2ED00F220A4011003731092A81
:104BE00001D830321100C173102B23D010300023B4
:104BF000037030BD07345AE737310C0063E70731E3
:104C00006CE737310C0074E707317DE737310C0072
:104C100085E707318EE737310C0095E707319DE7CF
:104C200037310C00A3E70731AAE737310C00C47213
:104C30000C2BB1D1C018DAE77028002010B588B06D
:104C400004000D2200216846FFF7B8FA0D2200216A
:104C500004A8FFF7B3FA4B236A466846137004A909
:104C60000D2205F0D5FC1521082220006944FFF72C
:104C7000ABFA08B010BDC04610B501210520FBF706
:104C8000CFFC10BD10B500220021024800F05CF9F5
:104C900010BDC0464C2400208022024B5202DA6430
:104CA0007047C04600201150F0B5C64600B506005A
:104CB00000F024F90C231B4DFF22AB6705201A4995
:104CC000FBF710FD40239846184C4022002120009D
:104CD000FFF774FA43460127238321210023144A56
:104CE0006770A260136063545F316184414621871D
:104CF000053963540F4A10496360E260A1620B609A
:104D00006362E26205F09CFC80239B052F64EB64E8
:104D100090230A4A3000EA50FFF7BEFF80BCB84635
:104D2000F0BDC04600001150A50600202C24002034
:104D300084001050000110508000105010D001006D
:104D40000B785B0602D14B78052B00D070478A7830
:104D5000014B1A60FAE7C04600001150F0B5C64694
:104D600000B5CC7888780A794B797F21A407014077
:104D70001B02C50913434F00A20F1400324E7A19CB
:104D80005201B218907001206840507000205B05FD
:104D90005B0DD0701383D4768046CA00012D33D0CA
:104DA0002A488446880162448446B444604682604E
:104DB00040461060002933D0254AC900904662461B
:104DC000414451603F223F339343022C00D15B00AA
:104DD00020487A1901685201B218D1601E4ACB18D6
:104DE000036051405A40802388465B019A4228D88C
:104DF0004346A4061C4380237F197F01F61972687D
:104E00001B062343136011E0144884468801624462
:104E10008446B4446046826240461060002909D14D
:104E200000236D0175196B600D4BEB60012080BC98
:104E3000B846F0BD084AC9009046624641445162F6
:104E4000C0E7FDF707F9D3E72C24002084001050B9
:104E50000400105034280020000010508000105032
:104E60000001105010B505F0EBFB10BD10B57F2010
:104E70000C0020404000E409110000191A00034B07
:104E80004001C01800F060F8012010BD2C24002063
:104E90007F23180000B5084083B00B4204D14B4279
:104EA0004B41084A013393668022C9094000064BF2
:104EB000401840010021C018120105F019FC03B090
:104EC00000BDC046002011502C2400207F2213007A
:104ED00010B50B400A4200D110BDC9095B005B1838
:104EE00004485B01C018002300220349C37005F089
:104EF000FFFBF1E72C240020FFF7FFFF80220D4B82
:104F0000520410B51A600C4B0C491A6010008B68E3
:104F10009843FBD19C2200210948FFF74FF98022DA
:104F2000002152010748FFF749F90923044A536752
:104F300010BDC04600E0004000F0004000C000404E
:104F40000000115000001050002310B5C38201333F
:104F5000828283760161040005F0AAFB002804D058
:104F600080219023074A8902D150200005F098FB48
:104F7000002802D00123237710BD200005F0A8FBF4
:104F8000FAE7C04600201150024B5878431E984162
:104F9000C0B2704758180020024B18784007C00F65
:104FA0007047C04658180020034B1878FF38431E3E
:104FB0009841C0B27047C046CC100020F8B5CE462C
:104FC000474680B5284E05003378FF2B04D00120DA
:104FD000C0BCB946B046F8BD532200212348FFF7B4
:104FE000EDF8234C2000FBF70DFE224B1C60224CF9
:104FF0002000143CFBF722FE200001F0BFFB1F4BFA
:105000001F4F1C601F4B9846002F04D01800FFF75D
:10501000FBFA1D4B186043461C4A002491461B783E
:10502000002F11D04A46A34212D89047434601347C
:105030001B78E4B2A342F3D228003570FFF734FEA8
:105040002800FFF719FEC2E7002C0BD00020BFE7B5
:105050000D4A630012681B19DB00D318002BF5D032
:105060001A68E2E7094AE0E7CC100020581800204F
:1050700010180020AC180020C4100020B018002028
:1050800009460010AE29002030150020115E0010E6
:10509000F0B5DE4657464E464546E0B591B001F0C4
:1050A00093F8002800D1FCE0C34BC44E9946C44B92
:1050B0000DAC0293C34B9B464B46019335686A691E
:1050C000EFF3108172B61368002BFCD0BFF35F8F33
:1050D000A9612800210001F081F96A69AB69BFF379
:1050E0005F8F0021116083F31088002800D1D8E081
:1050F0006378082BE2D8019A9B00D3589F466368D7
:10510000002BDBD0A0689847D8E77F202179AC4DF1
:1051100008404300CA09EB189B181D0001273035D1
:10512000EA78BA43EA70EA780337BA43EA700028AB
:1051300000D1F2E0A44FDB7C002F06D0A34A127806
:10514000934200D2F1E09B1ADBB2002B00D0A8E022
:105150009F4DA36862792078A847AFE70122984D58
:1051600001202B78042113432B703323EA5C824304
:10517000EA54EA5C8A43EA540133EA5C8243EA5423
:10518000EA5C00208A43EA5423789A4600F0F6FC51
:10519000602223791A40602A00D1B5E0402A00D16C
:1051A000AFE0DB06DB0E012B00D1D3E0022B00D1F8
:1051B00020E1002B00D0A7E0202A00D153E1002AF3
:1051C00000D0A1E06379092B00D99DE0814A9B00C2
:1051D000D3589F46029B1B78DB0700D46EE77E4BBB
:1051E000002B00D16AE700E000BF67E7744D2B7821
:1051F000DB0700D462E7794B002B00D15EE728780B
:105200000007C00F00E000BF58E7002523786E4F6D
:105210009A466E4B98461B78002F49D05A46AB42AF
:1052200063D850469047434601351B78EDB2AB42F8
:10523000F2D2634D532200212800FEF7BFFF102257
:10524000FF21E81CFEF7BAFF28002022FF211330BF
:10525000FEF7B4FF2EE0002523785B4F9A465B4BA8
:1052600098461B78002F2ED05A46AB4233D8504672
:105270009047434601351B78EDB2AB42F2D2504D18
:10528000532200212800FEF799FF1022FF21E81C7D
:10529000FEF794FF28002022FF211330FEF78EFF37
:1052A00014E011B0F0BCBB46B246A946A046F0BD22
:1052B000002D38D000F058FC494B002B00D1FDE602
:1052C00000E000BFFAE6002D19D03D4D00F04CFC87
:1052D0002379AB70F2E6434A6B0012685B19DB007E
:1052E000D318002BF1D05A68C1E73E4A6B00126810
:1052F0005B19DB00D318002BDCD05A6891E7314AE8
:10530000B5E7394800281AD120780021FFF7C0FD01
:1053100080212078FFF7BCFDD0E6A3686279207871
:1053200000F040FCCAE6274A7BE72E4A5800126884
:10533000C318DB00D318002BB3D01D6909E700F0B8
:105340001DFC012150460EAA00E000BF002800D03D
:10535000B4E6D9E7237A0F2BD6D81B4FEB18DB78AE
:10536000002F06D0194A1278934200D29CE09B1A73
:10537000DBB2002BC8D11D481D4D00F0FFFB012101
:105380005046EB680EAA9847002800D096E66022A7
:10539000150023791D401A42B6D163790A3B012BCF
:1053A000B2D800F0EBFB63790A2B00D17DE15046C7
:1053B0000EA900F06FFB81E604AF0010B0180020CA
:1053C000581800208D5E001009460010AE290020FC
:1053D0008160001028AF00100000000000000000F5
:1053E0000000000030150020000000009D5F00104C
:1053F00090AF00107023217A0B4285D1C8098446F2
:105400000F330B405B00E8186044C07CB14F80460E
:10541000002F07D0B0480078804550D34746381A4F
:10542000C0B28046404600283AD1002A00D0F5E0BC
:10543000AA4A9046677902203A008243012A00D1A5
:10544000F0E0002F00D05FE7EB1863443033DB78E7
:105450000CAA9B07DB0F02321380504602230EA9D1
:1054600000F02EFB2AE6237A0F2B00D94CE7994F48
:10547000EB18DB78002F06D0974A1278934200D2BF
:10548000F3E09B1ADBB2002B00D03DE79448934D2C
:1054900000F074FB01215046EB680EAA984755E7CF
:1054A0009046002AC6D02FE78E4A59001568CB18BF
:1054B000DB00ED18002D00D126E7E8685DE74746E0
:1054C00088487F00006847448046FF00B844002AAF
:1054D000B0D04346002B00D116E7D86800F04EFB51
:1054E000434601215046DB680EAA98472EE7A37970
:1054F00003931A006B789A4207D06B78002B00D088
:1055000058E1039B002B00D0F8E0039B50460EA906
:105510006B7000F0BFFAD1E56B780CAA0232137001
:10552000504601230EA900F0CBFAC7E5E3881A0A1A
:10553000D8B20F2A00D9E7E66B499300CB589F46B3
:105540000EA800F021FB5046A179FFF79BFB022239
:105550002B7813432B70B1E5E388012B00D0D3E601
:1055600008222B78504693430EA92B7000F092FA34
:10557000A4E5022029780CAB9A1C8B068908DB0F66
:1055800001400B4368E7E388012B00D0BCE608220A
:105590002B78504613430EA92B7000F07BFA8DE553
:1055A000524B002B00D1AFE600E000BF021E00D13D
:1055B000AAE6D37891781B020B4350460EA900F05F
:1055C0007FFAC3E64A4B002B00D19DE600E000BF06
:1055D000021E00D198E6504613780EA900F070FA2A
:1055E000B4E62189FFF70AFA021EF4D18CE6022AFA
:1055F00000D12DE13F4B002B00D185E600E000BF3C
:105600000200002A00D17FE6D3E7FFF7EFF912236B
:1056100002000EA9504600F053FA97E62F4B30488F
:1056200098465BE7E288002A09D1334A1078012FB7
:1056300026D0EF1867443037FB789B073ED54346AA
:10564000002B00D13AE5D86800F098FA43460121D2
:10565000DB680EAA50469847002000F08FFA3423EA
:10566000EB5CDB0700D529E5A1E61E4A5900156869
:10567000CB18DB00ED18002D00D145E6E86807E700
:1056800030229146EB18634499444B46DB789B07E4
:10569000D5D5FFF71BFC4B460222DB7893434A46E5
:1056A000D370D378BB43D370C9E70CAB9A1C504678
:1056B00001230EA9157000F003FAFFE4FFF7E8FBE1
:1056C0000222FB7813430122FB70FB781343FB702B
:1056D000B5E7C04609460010AE29002090AF001083
:1056E0009D5F00103015002050AF0010000000003A
:1056F0000000000000000000CC100020581EC0B2C6
:10570000FFF778F9002800D1FEE543780793022BD4
:1057100000D0F9E50121C279B146931152110B4035
:105720000A4012015B0113432A782F318A43134345
:105730002B700923984680444746A846C378827850
:105740001B021343C31804935C4B0993049BBB4295
:1057500000D881E07B7801220B2B02D13B78FA78CC
:10576000FF187B78042B23D10025049B0B92DB1BB5
:105770009BB20593524B19780693524B0A93524BA6
:1057800008930A9B002B52D0099B089E8D4245D35B
:1057900039005046059A98478446082802D9059A48
:1057A000824262D2069B01351978EDB2A942E8D255
:1057B0004E46A9E55046FFF755FB00229146434A65
:1057C000AB7805922A004D46914604933C4B3D4FE1
:1057D00098461B78002F1BD0059A9D422CD350462B
:1057E0009047434601351B78EDB2AB42F2D24D46AD
:1057F000532200212800FEF7E1FC1022FF2134484B
:10580000FEF7DCFC2022FF213248FEF7D7FC02E045
:10581000002D1BD04D46049BAB7072E618232E4A18
:105820006B431668F618002EC2D0B368B0E7002D9F
:10583000BED1224B244EABE7274A6B0012685B199E
:10584000DB00D318002BE5D05A68C8E71F4AC6E72B
:10585000FFF7D0F80200D4E6204B45464E46002B19
:1058600000D152E600E000BF4FE60B9A012A1FD09C
:105870000021464609E0BB78CB18DBB2F318D87894
:10588000FF2895D10131DD70C9B29142F3D1B04604
:1058900066462B00390032000E4800F01BFDB4466E
:1058A000069B67441B78AB4200D34FE74E462BE57F
:1058B000024BB1689942DBD1079AD9E7B95E001073
:1058C000AE2900200946001090AF00108D5E001038
:1058D0005B1800206B18002030150020000000002D
:1058E000F8B557464E46DE4645460C00E0B5160074
:1058F0001F00002A3CD0702398461E4B00259B4673
:105900001D4B9A461AE05B461B7820009946534689
:10591000997800F0A1FC00281CD021004846FFF730
:105920001DFA002816D0A378DA09012A19D00A9A9C
:10593000013513702378E418AE4219DD6378052B26
:1059400008D1E3789B079B0FBB4203D14246A37863
:105950001A42D8D00020F0BCBB46B246A946A046A9
:10596000F8BD0B9A013513702378E418AE42E5DCDC
:105970000120F0E7CC10002058180020802310B53B
:105980000F4A84B01B0114680193039101AB586066
:105990006169EFF3108272B608680028FCD0BFF38B
:1059A0005F8F1900A261200000F0DAFD6269A3692F
:1059B000BFF35F8F0021116083F3108804B010BD26
:1059C000B0180020702270B58B780C001A4201D0FC
:1059D000002070BD064B20001D78064B997800F022
:1059E0003BFC0028F4D021002800FFF7B7F9F0E7CE
:1059F000CC100020581800200B007F2010B5184054
:105A0000DB0933334000044AC018044B1168C01846
:105A100000F0DEFB10BDC046AC1800205818002076
:105A20000B007F2010B51840DB0933334000044AD7
:105A3000C018044B1168C01800F0F2FB10BDC0463E
:105A4000AC1800205818002070B57F240F480C4077
:105A500064000419CD0964193034E078C00701D519
:105A6000002070BD0126E578094835430078E570CF
:105A7000FFF7FCF90028F4D10122E3789343E370A7
:105A8000E37803329343E370EAE7C04658180020F6
:105A9000CC10002070B5094C0600082220000D0033
:105AA000FEF792FB00238021E360A3602B78300097
:105AB000994300220023FFF7C7FF70BDFC170020A9
:105AC000F8B5CE4647469046254E80B58146082219
:105AD00030000D001F00FEF777FB4346B360002344
